{
  "abi": [
    {
      "inputs": [
        {
          "internalType": "address",
          "name": "_priceFeedAddress",
          "type": "address"
        }
      ],
      "stateMutability": "nonpayable",
      "type": "constructor"
    },
    {
      "inputs": [
        {
          "internalType": "address",
          "name": "",
          "type": "address"
        }
      ],
      "name": "addressToAmount",
      "outputs": [
        {
          "internalType": "uint256",
          "name": "",
          "type": "uint256"
        }
      ],
      "stateMutability": "view",
      "type": "function"
    },
    {
      "inputs": [],
      "name": "fund",
      "outputs": [],
      "stateMutability": "payable",
      "type": "function"
    },
    {
      "inputs": [
        {
          "internalType": "uint256",
          "name": "",
          "type": "uint256"
        }
      ],
      "name": "funders",
      "outputs": [
        {
          "internalType": "address",
          "name": "",
          "type": "address"
        }
      ],
      "stateMutability": "view",
      "type": "function"
    },
    {
      "inputs": [
        {
          "internalType": "uint256",
          "name": "inputAmtUSD",
          "type": "uint256"
        }
      ],
      "name": "getConversionUSDToWEI",
      "outputs": [
        {
          "internalType": "uint256",
          "name": "",
          "type": "uint256"
        }
      ],
      "stateMutability": "pure",
      "type": "function"
    },
    {
      "inputs": [],
      "name": "getEntranceFee",
      "outputs": [
        {
          "internalType": "uint256",
          "name": "",
          "type": "uint256"
        }
      ],
      "stateMutability": "view",
      "type": "function"
    },
    {
      "inputs": [],
      "name": "getPrice",
      "outputs": [
        {
          "internalType": "uint256",
          "name": "",
          "type": "uint256"
        }
      ],
      "stateMutability": "view",
      "type": "function"
    },
    {
      "inputs": [],
      "name": "getPriceAll",
      "outputs": [
        {
          "internalType": "uint80",
          "name": "",
          "type": "uint80"
        },
        {
          "internalType": "int256",
          "name": "",
          "type": "int256"
        },
        {
          "internalType": "uint256",
          "name": "",
          "type": "uint256"
        },
        {
          "internalType": "uint256",
          "name": "",
          "type": "uint256"
        },
        {
          "internalType": "uint80",
          "name": "",
          "type": "uint80"
        }
      ],
      "stateMutability": "view",
      "type": "function"
    },
    {
      "inputs": [],
      "name": "getPriceHardCode",
      "outputs": [
        {
          "internalType": "uint256",
          "name": "",
          "type": "uint256"
        }
      ],
      "stateMutability": "pure",
      "type": "function"
    },
    {
      "inputs": [],
      "name": "owner",
      "outputs": [
        {
          "internalType": "address",
          "name": "",
          "type": "address"
        }
      ],
      "stateMutability": "view",
      "type": "function"
    },
    {
      "inputs": [],
      "name": "priceFeed",
      "outputs": [
        {
          "internalType": "contract AggregatorV3Interface",
          "name": "",
          "type": "address"
        }
      ],
      "stateMutability": "view",
      "type": "function"
    },
    {
      "inputs": [],
      "name": "withdraw",
      "outputs": [],
      "stateMutability": "payable",
      "type": "function"
    }
  ],
  "bytecode": "608060405234801561001057600080fd5b506040516108d13803806108d183398101604081905261002f91610062565b60028054336001600160a01b031991821617909155600080549091166001600160a01b0392909216919091179055610092565b60006020828403121561007457600080fd5b81516001600160a01b038116811461008b57600080fd5b9392505050565b610830806100a16000396000f3fe60806040526004361061009c5760003560e01c8063741bef1a11610064578063741bef1a146101645780638395a7441461019c5780638da5cb5b146101bc57806398d5fdca146101dc578063b60d4288146101f1578063dc0d3dff146101f957600080fd5b806309bc33a7146100a15780633c7e7d28146100c95780633ccfd60b146100f65780634ec5e4331461010057806360e3949f14610118575b600080fd5b3480156100ad57600080fd5b506100b6610219565b6040519081526020015b60405180910390f35b3480156100d557600080fd5b506100b66100e43660046106ab565b60016020526000908152604090205481565b6100fe610256565b005b34801561010c57600080fd5b50644d67a791886100b6565b34801561012457600080fd5b5061012d610360565b6040805169ffffffffffffffffffff968716815260208101959095528401929092526060830152909116608082015260a0016100c0565b34801561017057600080fd5b50600054610184906001600160a01b031681565b6040516001600160a01b0390911681526020016100c0565b3480156101a857600080fd5b506100b66101b73660046106d4565b6103fa565b3480156101c857600080fd5b50600254610184906001600160a01b031681565b3480156101e857600080fd5b506100b661043f565b6100fe6104b8565b34801561020557600080fd5b506101846102143660046106d4565b610607565b60006802b5e3af16b18800008161022e61043f565b9050670de0b6b3a7640000816102448285610703565b61024e9190610722565b935050505090565b6002546001600160a01b031633146102b55760405162461bcd60e51b815260206004820152601e60248201527f4f6e6c792061646d696e2063616e2077697468647261772066756e647321000060448201526064015b60405180910390fd5b60405133904780156108fc02916000818181858888f193505050501580156102e1573d6000803e3d6000fd5b5060005b60035481101561033f576000600160006003848154811061030857610308610744565b60009182526020808320909101546001600160a01b03168352820192909252604001902055806103378161075a565b9150506102e5565b50604080516000815260208101918290525161035d91600391610631565b50565b60008060008060008060008060008060008054906101000a90046001600160a01b03166001600160a01b031663feaf968c6040518163ffffffff1660e01b815260040160a060405180830381865afa1580156103c0573d6000803e3d6000fd5b505050506040513d601f19601f820116820180604052508101906103e49190610792565b939e929d50909b50995090975095505050505050565b60008061040b83633b9aca00610703565b61041990633b9aca00610703565b610427906305f5e100610703565b9050610438644d67a7918882610722565b9392505050565b6000805460408051633fabe5a360e21b8152905183926001600160a01b03169163feaf968c9160048083019260a09291908290030181865afa158015610489573d6000803e3d6000fd5b505050506040513d601f19601f820116820180604052508101906104ad9190610792565b509195945050505050565b600254336001600160a01b03909116036105145760405162461bcd60e51b815260206004820152601d60248201527f4f6e6c79206e6f6e2061646d696e2063616e2066756e6420746869732100000060448201526064016102ac565b3460326000610522826103fa565b90506000610534633b9aca0083610722565b90508184101561059b5760405162461bcd60e51b815260206004820152602c60248201527f596f75206e65656420746f207370656e64206d6f726520455448202d206d696e60448201526b696d756d203530205553442160a01b60648201526084016102ac565b33600090815260016020526040812080548692906105ba9084906107e2565b9091555050600380546001810182556000919091527fc2575a0e9e593c00f959f8c92f12db2869c3395a3b0502d05e2516446f71f85b0180546001600160a01b0319163317905550505050565b6003818154811061061757600080fd5b6000918252602090912001546001600160a01b0316905081565b828054828255906000526020600020908101928215610686579160200282015b8281111561068657825182546001600160a01b0319166001600160a01b03909116178255602090920191600190910190610651565b50610692929150610696565b5090565b5b808211156106925760008155600101610697565b6000602082840312156106bd57600080fd5b81356001600160a01b038116811461043857600080fd5b6000602082840312156106e657600080fd5b5035919050565b634e487b7160e01b600052601160045260246000fd5b600081600019048311821515161561071d5761071d6106ed565b500290565b60008261073f57634e487b7160e01b600052601260045260246000fd5b500490565b634e487b7160e01b600052603260045260246000fd5b60006001820161076c5761076c6106ed565b5060010190565b805169ffffffffffffffffffff8116811461078d57600080fd5b919050565b600080600080600060a086880312156107aa57600080fd5b6107b386610773565b94506020860151935060408601519250606086015191506107d660808701610773565b90509295509295909350565b600082198211156107f5576107f56106ed565b50019056fea26469706673582212207f37324f1ec2c27d7a8fa58459ec4aff70b23dc7f624b8e2c66dcd06bb2b9b2e64736f6c634300080d0033",
  "bytecodeSha1": "2b22adb8b3a83a96ef9f42edfe377ff5d0f27457",
  "compiler": {
    "evm_version": "istanbul",
    "optimizer": {
      "enabled": true,
      "runs": 200
    },
    "version": "0.8.13+commit.abaa5c0e"
  },
  "contractName": "FundMe",
  "language": "Solidity",
  "natspec": {
    "kind": "dev",
    "methods": {},
    "version": 1
  },
  "opcodes": "PUSH1 0x80 PUSH1 0x40 MSTORE PUSH1 0x4 CALLDATASIZE LT PUSH2 0x9C JUMPI PUSH1 0x0 CALLDATALOAD PUSH1 0xE0 SHR DUP1 PUSH4 0x741BEF1A GT PUSH2 0x64 JUMPI DUP1 PUSH4 0x741BEF1A EQ PUSH2 0x164 JUMPI DUP1 PUSH4 0x8395A744 EQ PUSH2 0x19C JUMPI DUP1 PUSH4 0x8DA5CB5B EQ PUSH2 0x1BC JUMPI DUP1 PUSH4 0x98D5FDCA EQ PUSH2 0x1DC JUMPI DUP1 PUSH4 0xB60D4288 EQ PUSH2 0x1F1 JUMPI DUP1 PUSH4 0xDC0D3DFF EQ PUSH2 0x1F9 JUMPI PUSH1 0x0 DUP1 REVERT JUMPDEST DUP1 PUSH4 0x9BC33A7 EQ PUSH2 0xA1 JUMPI DUP1 PUSH4 0x3C7E7D28 EQ PUSH2 0xC9 JUMPI DUP1 PUSH4 0x3CCFD60B EQ PUSH2 0xF6 JUMPI DUP1 PUSH4 0x4EC5E433 EQ PUSH2 0x100 JUMPI DUP1 PUSH4 0x60E3949F EQ PUSH2 0x118 JUMPI JUMPDEST PUSH1 0x0 DUP1 REVERT JUMPDEST CALLVALUE DUP1 ISZERO PUSH2 0xAD JUMPI PUSH1 0x0 DUP1 REVERT JUMPDEST POP PUSH2 0xB6 PUSH2 0x219 JUMP JUMPDEST PUSH1 0x40 MLOAD SWAP1 DUP2 MSTORE PUSH1 0x20 ADD JUMPDEST PUSH1 0x40 MLOAD DUP1 SWAP2 SUB SWAP1 RETURN JUMPDEST CALLVALUE DUP1 ISZERO PUSH2 0xD5 JUMPI PUSH1 0x0 DUP1 REVERT JUMPDEST POP PUSH2 0xB6 PUSH2 0xE4 CALLDATASIZE PUSH1 0x4 PUSH2 0x6AB JUMP JUMPDEST PUSH1 0x1 PUSH1 0x20 MSTORE PUSH1 0x0 SWAP1 DUP2 MSTORE PUSH1 0x40 SWAP1 KECCAK256 SLOAD DUP2 JUMP JUMPDEST PUSH2 0xFE PUSH2 0x256 JUMP JUMPDEST STOP JUMPDEST CALLVALUE DUP1 ISZERO PUSH2 0x10C JUMPI PUSH1 0x0 DUP1 REVERT JUMPDEST POP PUSH5 0x4D67A79188 PUSH2 0xB6 JUMP JUMPDEST CALLVALUE DUP1 ISZERO PUSH2 0x124 JUMPI PUSH1 0x0 DUP1 REVERT JUMPDEST POP PUSH2 0x12D PUSH2 0x360 JUMP JUMPDEST PUSH1 0x40 DUP1 MLOAD PUSH10 0xFFFFFFFFFFFFFFFFFFFF SWAP7 DUP8 AND DUP2 MSTORE PUSH1 0x20 DUP2 ADD SWAP6 SWAP1 SWAP6 MSTORE DUP5 ADD SWAP3 SWAP1 SWAP3 MSTORE PUSH1 0x60 DUP4 ADD MSTORE SWAP1 SWAP2 AND PUSH1 0x80 DUP3 ADD MSTORE PUSH1 0xA0 ADD PUSH2 0xC0 JUMP JUMPDEST CALLVALUE DUP1 ISZERO PUSH2 0x170 JUMPI PUSH1 0x0 DUP1 REVERT JUMPDEST POP PUSH1 0x0 SLOAD PUSH2 0x184 SWAP1 PUSH1 0x1 PUSH1 0x1 PUSH1 0xA0 SHL SUB AND DUP2 JUMP JUMPDEST PUSH1 0x40 MLOAD PUSH1 0x1 PUSH1 0x1 PUSH1 0xA0 SHL SUB SWAP1 SWAP2 AND DUP2 MSTORE PUSH1 0x20 ADD PUSH2 0xC0 JUMP JUMPDEST CALLVALUE DUP1 ISZERO PUSH2 0x1A8 JUMPI PUSH1 0x0 DUP1 REVERT JUMPDEST POP PUSH2 0xB6 PUSH2 0x1B7 CALLDATASIZE PUSH1 0x4 PUSH2 0x6D4 JUMP JUMPDEST PUSH2 0x3FA JUMP JUMPDEST CALLVALUE DUP1 ISZERO PUSH2 0x1C8 JUMPI PUSH1 0x0 DUP1 REVERT JUMPDEST POP PUSH1 0x2 SLOAD PUSH2 0x184 SWAP1 PUSH1 0x1 PUSH1 0x1 PUSH1 0xA0 SHL SUB AND DUP2 JUMP JUMPDEST CALLVALUE DUP1 ISZERO PUSH2 0x1E8 JUMPI PUSH1 0x0 DUP1 REVERT JUMPDEST POP PUSH2 0xB6 PUSH2 0x43F JUMP JUMPDEST PUSH2 0xFE PUSH2 0x4B8 JUMP JUMPDEST CALLVALUE DUP1 ISZERO PUSH2 0x205 JUMPI PUSH1 0x0 DUP1 REVERT JUMPDEST POP PUSH2 0x184 PUSH2 0x214 CALLDATASIZE PUSH1 0x4 PUSH2 0x6D4 JUMP JUMPDEST PUSH2 0x607 JUMP JUMPDEST PUSH1 0x0 PUSH9 0x2B5E3AF16B1880000 DUP2 PUSH2 0x22E PUSH2 0x43F JUMP JUMPDEST SWAP1 POP PUSH8 0xDE0B6B3A7640000 DUP2 PUSH2 0x244 DUP3 DUP6 PUSH2 0x703 JUMP JUMPDEST PUSH2 0x24E SWAP2 SWAP1 PUSH2 0x722 JUMP JUMPDEST SWAP4 POP POP POP POP SWAP1 JUMP JUMPDEST PUSH1 0x2 SLOAD PUSH1 0x1 PUSH1 0x1 PUSH1 0xA0 SHL SUB AND CALLER EQ PUSH2 0x2B5 JUMPI PUSH1 0x40 MLOAD PUSH3 0x461BCD PUSH1 0xE5 SHL DUP2 MSTORE PUSH1 0x20 PUSH1 0x4 DUP3 ADD MSTORE PUSH1 0x1E PUSH1 0x24 DUP3 ADD MSTORE PUSH32 0x4F6E6C792061646D696E2063616E2077697468647261772066756E6473210000 PUSH1 0x44 DUP3 ADD MSTORE PUSH1 0x64 ADD JUMPDEST PUSH1 0x40 MLOAD DUP1 SWAP2 SUB SWAP1 REVERT JUMPDEST PUSH1 0x40 MLOAD CALLER SWAP1 SELFBALANCE DUP1 ISZERO PUSH2 0x8FC MUL SWAP2 PUSH1 0x0 DUP2 DUP2 DUP2 DUP6 DUP9 DUP9 CALL SWAP4 POP POP POP POP ISZERO DUP1 ISZERO PUSH2 0x2E1 JUMPI RETURNDATASIZE PUSH1 0x0 DUP1 RETURNDATACOPY RETURNDATASIZE PUSH1 0x0 REVERT JUMPDEST POP PUSH1 0x0 JUMPDEST PUSH1 0x3 SLOAD DUP2 LT ISZERO PUSH2 0x33F JUMPI PUSH1 0x0 PUSH1 0x1 PUSH1 0x0 PUSH1 0x3 DUP5 DUP2 SLOAD DUP2 LT PUSH2 0x308 JUMPI PUSH2 0x308 PUSH2 0x744 JUMP JUMPDEST PUSH1 0x0 SWAP2 DUP3 MSTORE PUSH1 0x20 DUP1 DUP4 KECCAK256 SWAP1 SWAP2 ADD SLOAD PUSH1 0x1 PUSH1 0x1 PUSH1 0xA0 SHL SUB AND DUP4 MSTORE DUP3 ADD SWAP3 SWAP1 SWAP3 MSTORE PUSH1 0x40 ADD SWAP1 KECCAK256 SSTORE DUP1 PUSH2 0x337 DUP2 PUSH2 0x75A JUMP JUMPDEST SWAP2 POP POP PUSH2 0x2E5 JUMP JUMPDEST POP PUSH1 0x40 DUP1 MLOAD PUSH1 0x0 DUP2 MSTORE PUSH1 0x20 DUP2 ADD SWAP2 DUP3 SWAP1 MSTORE MLOAD PUSH2 0x35D SWAP2 PUSH1 0x3 SWAP2 PUSH2 0x631 JUMP JUMPDEST POP JUMP JUMPDEST PUSH1 0x0 DUP1 PUSH1 0x0 DUP1 PUSH1 0x0 DUP1 PUSH1 0x0 DUP1 PUSH1 0x0 DUP1 PUSH1 0x0 DUP1 SLOAD SWAP1 PUSH2 0x100 EXP SWAP1 DIV PUSH1 0x1 PUSH1 0x1 PUSH1 0xA0 SHL SUB AND PUSH1 0x1 PUSH1 0x1 PUSH1 0xA0 SHL SUB AND PUSH4 0xFEAF968C PUSH1 0x40 MLOAD DUP2 PUSH4 0xFFFFFFFF AND PUSH1 0xE0 SHL DUP2 MSTORE PUSH1 0x4 ADD PUSH1 0xA0 PUSH1 0x40 MLOAD DUP1 DUP4 SUB DUP2 DUP7 GAS STATICCALL ISZERO DUP1 ISZERO PUSH2 0x3C0 JUMPI RETURNDATASIZE PUSH1 0x0 DUP1 RETURNDATACOPY RETURNDATASIZE PUSH1 0x0 REVERT JUMPDEST POP POP POP POP PUSH1 0x40 MLOAD RETURNDATASIZE PUSH1 0x1F NOT PUSH1 0x1F DUP3 ADD AND DUP3 ADD DUP1 PUSH1 0x40 MSTORE POP DUP2 ADD SWAP1 PUSH2 0x3E4 SWAP2 SWAP1 PUSH2 0x792 JUMP JUMPDEST SWAP4 SWAP15 SWAP3 SWAP14 POP SWAP1 SWAP12 POP SWAP10 POP SWAP1 SWAP8 POP SWAP6 POP POP POP POP POP POP JUMP JUMPDEST PUSH1 0x0 DUP1 PUSH2 0x40B DUP4 PUSH4 0x3B9ACA00 PUSH2 0x703 JUMP JUMPDEST PUSH2 0x419 SWAP1 PUSH4 0x3B9ACA00 PUSH2 0x703 JUMP JUMPDEST PUSH2 0x427 SWAP1 PUSH4 0x5F5E100 PUSH2 0x703 JUMP JUMPDEST SWAP1 POP PUSH2 0x438 PUSH5 0x4D67A79188 DUP3 PUSH2 0x722 JUMP JUMPDEST SWAP4 SWAP3 POP POP POP JUMP JUMPDEST PUSH1 0x0 DUP1 SLOAD PUSH1 0x40 DUP1 MLOAD PUSH4 0x3FABE5A3 PUSH1 0xE2 SHL DUP2 MSTORE SWAP1 MLOAD DUP4 SWAP3 PUSH1 0x1 PUSH1 0x1 PUSH1 0xA0 SHL SUB AND SWAP2 PUSH4 0xFEAF968C SWAP2 PUSH1 0x4 DUP1 DUP4 ADD SWAP3 PUSH1 0xA0 SWAP3 SWAP2 SWAP1 DUP3 SWAP1 SUB ADD DUP2 DUP7 GAS STATICCALL ISZERO DUP1 ISZERO PUSH2 0x489 JUMPI RETURNDATASIZE PUSH1 0x0 DUP1 RETURNDATACOPY RETURNDATASIZE PUSH1 0x0 REVERT JUMPDEST POP POP POP POP PUSH1 0x40 MLOAD RETURNDATASIZE PUSH1 0x1F NOT PUSH1 0x1F DUP3 ADD AND DUP3 ADD DUP1 PUSH1 0x40 MSTORE POP DUP2 ADD SWAP1 PUSH2 0x4AD SWAP2 SWAP1 PUSH2 0x792 JUMP JUMPDEST POP SWAP2 SWAP6 SWAP5 POP POP POP POP POP JUMP JUMPDEST PUSH1 0x2 SLOAD CALLER PUSH1 0x1 PUSH1 0x1 PUSH1 0xA0 SHL SUB SWAP1 SWAP2 AND SUB PUSH2 0x514 JUMPI PUSH1 0x40 MLOAD PUSH3 0x461BCD PUSH1 0xE5 SHL DUP2 MSTORE PUSH1 0x20 PUSH1 0x4 DUP3 ADD MSTORE PUSH1 0x1D PUSH1 0x24 DUP3 ADD MSTORE PUSH32 0x4F6E6C79206E6F6E2061646D696E2063616E2066756E64207468697321000000 PUSH1 0x44 DUP3 ADD MSTORE PUSH1 0x64 ADD PUSH2 0x2AC JUMP JUMPDEST CALLVALUE PUSH1 0x32 PUSH1 0x0 PUSH2 0x522 DUP3 PUSH2 0x3FA JUMP JUMPDEST SWAP1 POP PUSH1 0x0 PUSH2 0x534 PUSH4 0x3B9ACA00 DUP4 PUSH2 0x722 JUMP JUMPDEST SWAP1 POP DUP2 DUP5 LT ISZERO PUSH2 0x59B JUMPI PUSH1 0x40 MLOAD PUSH3 0x461BCD PUSH1 0xE5 SHL DUP2 MSTORE PUSH1 0x20 PUSH1 0x4 DUP3 ADD MSTORE PUSH1 0x2C PUSH1 0x24 DUP3 ADD MSTORE PUSH32 0x596F75206E65656420746F207370656E64206D6F726520455448202D206D696E PUSH1 0x44 DUP3 ADD MSTORE PUSH12 0x696D756D2035302055534421 PUSH1 0xA0 SHL PUSH1 0x64 DUP3 ADD MSTORE PUSH1 0x84 ADD PUSH2 0x2AC JUMP JUMPDEST CALLER PUSH1 0x0 SWAP1 DUP2 MSTORE PUSH1 0x1 PUSH1 0x20 MSTORE PUSH1 0x40 DUP2 KECCAK256 DUP1 SLOAD DUP7 SWAP3 SWAP1 PUSH2 0x5BA SWAP1 DUP5 SWAP1 PUSH2 0x7E2 JUMP JUMPDEST SWAP1 SWAP2 SSTORE POP POP PUSH1 0x3 DUP1 SLOAD PUSH1 0x1 DUP2 ADD DUP3 SSTORE PUSH1 0x0 SWAP2 SWAP1 SWAP2 MSTORE PUSH32 0xC2575A0E9E593C00F959F8C92F12DB2869C3395A3B0502D05E2516446F71F85B ADD DUP1 SLOAD PUSH1 0x1 PUSH1 0x1 PUSH1 0xA0 SHL SUB NOT AND CALLER OR SWAP1 SSTORE POP POP POP POP JUMP JUMPDEST PUSH1 0x3 DUP2 DUP2 SLOAD DUP2 LT PUSH2 0x617 JUMPI PUSH1 0x0 DUP1 REVERT JUMPDEST PUSH1 0x0 SWAP2 DUP3 MSTORE PUSH1 0x20 SWAP1 SWAP2 KECCAK256 ADD SLOAD PUSH1 0x1 PUSH1 0x1 PUSH1 0xA0 SHL SUB AND SWAP1 POP DUP2 JUMP JUMPDEST DUP3 DUP1 SLOAD DUP3 DUP3 SSTORE SWAP1 PUSH1 0x0 MSTORE PUSH1 0x20 PUSH1 0x0 KECCAK256 SWAP1 DUP2 ADD SWAP3 DUP3 ISZERO PUSH2 0x686 JUMPI SWAP2 PUSH1 0x20 MUL DUP3 ADD JUMPDEST DUP3 DUP2 GT ISZERO PUSH2 0x686 JUMPI DUP3 MLOAD DUP3 SLOAD PUSH1 0x1 PUSH1 0x1 PUSH1 0xA0 SHL SUB NOT AND PUSH1 0x1 PUSH1 0x1 PUSH1 0xA0 SHL SUB SWAP1 SWAP2 AND OR DUP3 SSTORE PUSH1 0x20 SWAP1 SWAP3 ADD SWAP2 PUSH1 0x1 SWAP1 SWAP2 ADD SWAP1 PUSH2 0x651 JUMP JUMPDEST POP PUSH2 0x692 SWAP3 SWAP2 POP PUSH2 0x696 JUMP JUMPDEST POP SWAP1 JUMP JUMPDEST JUMPDEST DUP1 DUP3 GT ISZERO PUSH2 0x692 JUMPI PUSH1 0x0 DUP2 SSTORE PUSH1 0x1 ADD PUSH2 0x697 JUMP JUMPDEST PUSH1 0x0 PUSH1 0x20 DUP3 DUP5 SUB SLT ISZERO PUSH2 0x6BD JUMPI PUSH1 0x0 DUP1 REVERT JUMPDEST DUP2 CALLDATALOAD PUSH1 0x1 PUSH1 0x1 PUSH1 0xA0 SHL SUB DUP2 AND DUP2 EQ PUSH2 0x438 JUMPI PUSH1 0x0 DUP1 REVERT JUMPDEST PUSH1 0x0 PUSH1 0x20 DUP3 DUP5 SUB SLT ISZERO PUSH2 0x6E6 JUMPI PUSH1 0x0 DUP1 REVERT JUMPDEST POP CALLDATALOAD SWAP2 SWAP1 POP JUMP JUMPDEST PUSH4 0x4E487B71 PUSH1 0xE0 SHL PUSH1 0x0 MSTORE PUSH1 0x11 PUSH1 0x4 MSTORE PUSH1 0x24 PUSH1 0x0 REVERT JUMPDEST PUSH1 0x0 DUP2 PUSH1 0x0 NOT DIV DUP4 GT DUP3 ISZERO ISZERO AND ISZERO PUSH2 0x71D JUMPI PUSH2 0x71D PUSH2 0x6ED JUMP JUMPDEST POP MUL SWAP1 JUMP JUMPDEST PUSH1 0x0 DUP3 PUSH2 0x73F JUMPI PUSH4 0x4E487B71 PUSH1 0xE0 SHL PUSH1 0x0 MSTORE PUSH1 0x12 PUSH1 0x4 MSTORE PUSH1 0x24 PUSH1 0x0 REVERT JUMPDEST POP DIV SWAP1 JUMP JUMPDEST PUSH4 0x4E487B71 PUSH1 0xE0 SHL PUSH1 0x0 MSTORE PUSH1 0x32 PUSH1 0x4 MSTORE PUSH1 0x24 PUSH1 0x0 REVERT JUMPDEST PUSH1 0x0 PUSH1 0x1 DUP3 ADD PUSH2 0x76C JUMPI PUSH2 0x76C PUSH2 0x6ED JUMP JUMPDEST POP PUSH1 0x1 ADD SWAP1 JUMP JUMPDEST DUP1 MLOAD PUSH10 0xFFFFFFFFFFFFFFFFFFFF DUP2 AND DUP2 EQ PUSH2 0x78D JUMPI PUSH1 0x0 DUP1 REVERT JUMPDEST SWAP2 SWAP1 POP JUMP JUMPDEST PUSH1 0x0 DUP1 PUSH1 0x0 DUP1 PUSH1 0x0 PUSH1 0xA0 DUP7 DUP9 SUB SLT ISZERO PUSH2 0x7AA JUMPI PUSH1 0x0 DUP1 REVERT JUMPDEST PUSH2 0x7B3 DUP7 PUSH2 0x773 JUMP JUMPDEST SWAP5 POP PUSH1 0x20 DUP7 ADD MLOAD SWAP4 POP PUSH1 0x40 DUP7 ADD MLOAD SWAP3 POP PUSH1 0x60 DUP7 ADD MLOAD SWAP2 POP PUSH2 0x7D6 PUSH1 0x80 DUP8 ADD PUSH2 0x773 JUMP JUMPDEST SWAP1 POP SWAP3 SWAP6 POP SWAP3 SWAP6 SWAP1 SWAP4 POP JUMP JUMPDEST PUSH1 0x0 DUP3 NOT DUP3 GT ISZERO PUSH2 0x7F5 JUMPI PUSH2 0x7F5 PUSH2 0x6ED JUMP JUMPDEST POP ADD SWAP1 JUMP INVALID LOG2 PUSH5 0x6970667358 0x22 SLT KECCAK256 PUSH32 0x37324F1EC2C27D7A8FA58459EC4AFF70B23DC7F624B8E2C66DCD06BB2B9B2E64 PUSH20 0x6F6C634300080D00330000000000000000000000 ",
  "sha1": "6cd61db2a9139f63116c429786b787d767490eeb",
  "source": "//SPDX-License-Identifier: MIT\npragma solidity ^0.8.0;\npragma experimental ABIEncoderV2;\n\nimport \"@chainlink/contracts/src/v0.8/interfaces/AggregatorV3Interface.sol\";\n\ncontract FundMe {\n    AggregatorV3Interface public priceFeed;\n    mapping(address => uint256) public addressToAmount;\n    address public owner;\n    address[] public funders;\n\n    constructor(address _priceFeedAddress) {\n        owner = msg.sender;\n        priceFeed = AggregatorV3Interface(_priceFeedAddress);\n    }\n\n    function fund() public payable onlyNonOwner {\n        uint256 usrAmtInWEI = msg.value;\n        uint256 minimumUSD = 50;\n        uint256 minimumUSDinWEI = getConversionUSDToWEI(minimumUSD);\n        uint256 minimumUSDinGWEI = minimumUSDinWEI / (10**9);\n\n        require(\n            usrAmtInWEI >= minimumUSDinWEI,\n            \"You need to spend more ETH - minimum 50 USD!\"\n        );\n        addressToAmount[msg.sender] += usrAmtInWEI;\n        funders.push(msg.sender);\n    }\n\n    modifier onlyOwner() {\n        require(owner == msg.sender, \"Only admin can withdraw funds!\");\n        _;\n    }\n    modifier onlyNonOwner() {\n        require(owner != msg.sender, \"Only non admin can fund this!\");\n        _;\n    }\n\n    function withdraw() public payable onlyOwner {\n        payable(msg.sender).transfer(address(this).balance);\n        for (uint256 i = 0; i < funders.length; i++) {\n            addressToAmount[funders[i]] = 0;\n        }\n        funders = new address[](0);\n    }\n\n    function getConversionUSDToWEI(uint256 inputAmtUSD)\n        public\n        pure\n        returns (uint256)\n    {\n        uint256 usdToEth = inputAmtUSD * (10**9) * (10**9) * (10**8);\n        usdToEth = usdToEth / getPriceHardCode();\n        return usdToEth;\n    }\n\n    function getPriceHardCode() public pure returns (uint256) {\n        // returns price of (10 ** 8) ETH in USD\n        uint256 ans = 332451516808;\n        return ans;\n    }\n\n    function getPrice() public view returns (uint256) {\n        (, int256 answer, , , ) = priceFeed.latestRoundData();\n        return uint256(answer);\n        //332451516808\n    }\n\n    function getPriceAll()\n        public\n        view\n        returns (\n            uint80,\n            int256,\n            uint256,\n            uint256,\n            uint80\n        )\n    {\n        (\n            uint80 roundId,\n            int256 answer,\n            uint256 startedAt,\n            uint256 updatedAt,\n            uint80 answerInRound\n        ) = priceFeed.latestRoundData();\n        return (roundId, answer, startedAt, updatedAt, answerInRound);\n    }\n\n    function getEntranceFee() public view returns (uint256) {\n        // minimumUSD\n        uint256 minimumUSD = 50 * 10**18;\n        uint256 price = getPrice();\n        uint256 precision = 1 * 10**18;\n        return (minimumUSD * precision) / price;\n    }\n}\n",
  "sourcePath": "contracts/FundMe.sol",
  "type": "contract"
}