{
  "abi": [
    {
      "inputs": [
        {
          "internalType": "address",
          "name": "_priceFeedAddress",
          "type": "address"
        }
      ],
      "stateMutability": "nonpayable",
      "type": "constructor"
    },
    {
      "inputs": [
        {
          "internalType": "address",
          "name": "",
          "type": "address"
        }
      ],
      "name": "addressToAmount",
      "outputs": [
        {
          "internalType": "uint256",
          "name": "",
          "type": "uint256"
        }
      ],
      "stateMutability": "view",
      "type": "function"
    },
    {
      "inputs": [],
      "name": "fund",
      "outputs": [],
      "stateMutability": "payable",
      "type": "function"
    },
    {
      "inputs": [],
      "name": "getEntranceFee",
      "outputs": [
        {
          "internalType": "uint256",
          "name": "",
          "type": "uint256"
        }
      ],
      "stateMutability": "view",
      "type": "function"
    },
    {
      "inputs": [],
      "name": "withdraw",
      "outputs": [],
      "stateMutability": "payable",
      "type": "function"
    }
  ],
  "bytecode": "608060405234801561001057600080fd5b506040516106c13803806106c183398101604081905261002f91610062565b60028054336001600160a01b031991821617909155600080549091166001600160a01b0392909216919091179055610090565b600060208284031215610073578081fd5b81516001600160a01b0381168114610089578182fd5b9392505050565b6106228061009f6000396000f3fe60806040526004361061003f5760003560e01c806309bc33a7146100445780633c7e7d281461006f5780633ccfd60b1461008f578063b60d428814610099575b600080fd5b34801561005057600080fd5b506100596100a1565b604051610066919061055b565b60405180910390f35b34801561007b57600080fd5b5061005961008a366004610424565b6100de565b6100976100f0565b005b6100976101dc565b60006802b5e3af16b1880000816100b66102b5565b9050670de0b6b3a7640000816100cc828561059c565b6100d6919061057c565b935050505090565b60016020526000908152604090205481565b6002546001600160a01b031633146101235760405162461bcd60e51b815260040161011a906104a1565b60405180910390fd5b60405133904780156108fc02916000818181858888f1935050505015801561014f573d6000803e3d6000fd5b5060005b6003548110156101bb576000600160006003848154811061018457634e487b7160e01b600052603260045260246000fd5b60009182526020808320909101546001600160a01b03168352820192909252604001902055806101b3816105bb565b915050610153565b5060408051600081526020810191829052516101d991600391610390565b50565b6002546001600160a01b03163314156102075760405162461bcd60e51b815260040161011a90610524565b34603260006102158261033d565b90506000610227633b9aca008361057c565b9050818410156102495760405162461bcd60e51b815260040161011a906104d8565b3360009081526001602052604081208054869290610268908490610564565b9091555050600380546001810182556000919091527fc2575a0e9e593c00f959f8c92f12db2869c3395a3b0502d05e2516446f71f85b0180546001600160a01b0319163317905550505050565b6000805460408051633fabe5a360e21b8152905183926001600160a01b03169163feaf968c9160048083019260a0929190829003018186803b1580156102fa57600080fd5b505afa15801561030e573d6000803e3d6000fd5b505050506040513d601f19601f820116820180604052508101906103329190610452565b509194505050505090565b60008061034e83633b9aca0061059c565b61035c90633b9aca0061059c565b61036a906305f5e10061059c565b9050610374610387565b61037e908261057c565b9150505b919050565b644d67a7918890565b8280548282559060005260206000209081019282156103e5579160200282015b828111156103e557825182546001600160a01b0319166001600160a01b039091161782556020909201916001909101906103b0565b506103f19291506103f5565b5090565b5b808211156103f157600081556001016103f6565b805169ffffffffffffffffffff8116811461038257600080fd5b600060208284031215610435578081fd5b81356001600160a01b038116811461044b578182fd5b9392505050565b600080600080600060a08688031215610469578081fd5b6104728661040a565b94506020860151935060408601519250606086015191506104956080870161040a565b90509295509295909350565b6020808252601e908201527f4f6e6c792061646d696e2063616e2077697468647261772066756e6473210000604082015260600190565b6020808252602c908201527f596f75206e65656420746f207370656e64206d6f726520455448202d206d696e60408201526b696d756d203530205553442160a01b606082015260800190565b6020808252601d908201527f4f6e6c79206e6f6e2061646d696e2063616e2066756e64207468697321000000604082015260600190565b90815260200190565b60008219821115610577576105776105d6565b500190565b60008261059757634e487b7160e01b81526012600452602481fd5b500490565b60008160001904831182151516156105b6576105b66105d6565b500290565b60006000198214156105cf576105cf6105d6565b5060010190565b634e487b7160e01b600052601160045260246000fdfea2646970667358221220aadf67fa70e22e25b0da568deef97f2b618d2cf271f056ab0d0dbda1e174677964736f6c63430008000033",
  "bytecodeSha1": "e96b88baa92eea0ecd1eac0f99617fceba8fb58a",
  "compiler": {
    "evm_version": "istanbul",
    "optimizer": {
      "enabled": true,
      "runs": 200
    },
    "version": "0.8.0+commit.c7dfd78e"
  },
  "contractName": "FundMe",
  "language": "Solidity",
  "natspec": {
    "kind": "dev",
    "methods": {},
    "version": 1
  },
  "opcodes": "PUSH1 0x80 PUSH1 0x40 MSTORE PUSH1 0x4 CALLDATASIZE LT PUSH2 0x3F JUMPI PUSH1 0x0 CALLDATALOAD PUSH1 0xE0 SHR DUP1 PUSH4 0x9BC33A7 EQ PUSH2 0x44 JUMPI DUP1 PUSH4 0x3C7E7D28 EQ PUSH2 0x6F JUMPI DUP1 PUSH4 0x3CCFD60B EQ PUSH2 0x8F JUMPI DUP1 PUSH4 0xB60D4288 EQ PUSH2 0x99 JUMPI JUMPDEST PUSH1 0x0 DUP1 REVERT JUMPDEST CALLVALUE DUP1 ISZERO PUSH2 0x50 JUMPI PUSH1 0x0 DUP1 REVERT JUMPDEST POP PUSH2 0x59 PUSH2 0xA1 JUMP JUMPDEST PUSH1 0x40 MLOAD PUSH2 0x66 SWAP2 SWAP1 PUSH2 0x55B JUMP JUMPDEST PUSH1 0x40 MLOAD DUP1 SWAP2 SUB SWAP1 RETURN JUMPDEST CALLVALUE DUP1 ISZERO PUSH2 0x7B JUMPI PUSH1 0x0 DUP1 REVERT JUMPDEST POP PUSH2 0x59 PUSH2 0x8A CALLDATASIZE PUSH1 0x4 PUSH2 0x424 JUMP JUMPDEST PUSH2 0xDE JUMP JUMPDEST PUSH2 0x97 PUSH2 0xF0 JUMP JUMPDEST STOP JUMPDEST PUSH2 0x97 PUSH2 0x1DC JUMP JUMPDEST PUSH1 0x0 PUSH9 0x2B5E3AF16B1880000 DUP2 PUSH2 0xB6 PUSH2 0x2B5 JUMP JUMPDEST SWAP1 POP PUSH8 0xDE0B6B3A7640000 DUP2 PUSH2 0xCC DUP3 DUP6 PUSH2 0x59C JUMP JUMPDEST PUSH2 0xD6 SWAP2 SWAP1 PUSH2 0x57C JUMP JUMPDEST SWAP4 POP POP POP POP SWAP1 JUMP JUMPDEST PUSH1 0x1 PUSH1 0x20 MSTORE PUSH1 0x0 SWAP1 DUP2 MSTORE PUSH1 0x40 SWAP1 KECCAK256 SLOAD DUP2 JUMP JUMPDEST PUSH1 0x2 SLOAD PUSH1 0x1 PUSH1 0x1 PUSH1 0xA0 SHL SUB AND CALLER EQ PUSH2 0x123 JUMPI PUSH1 0x40 MLOAD PUSH3 0x461BCD PUSH1 0xE5 SHL DUP2 MSTORE PUSH1 0x4 ADD PUSH2 0x11A SWAP1 PUSH2 0x4A1 JUMP JUMPDEST PUSH1 0x40 MLOAD DUP1 SWAP2 SUB SWAP1 REVERT JUMPDEST PUSH1 0x40 MLOAD CALLER SWAP1 SELFBALANCE DUP1 ISZERO PUSH2 0x8FC MUL SWAP2 PUSH1 0x0 DUP2 DUP2 DUP2 DUP6 DUP9 DUP9 CALL SWAP4 POP POP POP POP ISZERO DUP1 ISZERO PUSH2 0x14F JUMPI RETURNDATASIZE PUSH1 0x0 DUP1 RETURNDATACOPY RETURNDATASIZE PUSH1 0x0 REVERT JUMPDEST POP PUSH1 0x0 JUMPDEST PUSH1 0x3 SLOAD DUP2 LT ISZERO PUSH2 0x1BB JUMPI PUSH1 0x0 PUSH1 0x1 PUSH1 0x0 PUSH1 0x3 DUP5 DUP2 SLOAD DUP2 LT PUSH2 0x184 JUMPI PUSH4 0x4E487B71 PUSH1 0xE0 SHL PUSH1 0x0 MSTORE PUSH1 0x32 PUSH1 0x4 MSTORE PUSH1 0x24 PUSH1 0x0 REVERT JUMPDEST PUSH1 0x0 SWAP2 DUP3 MSTORE PUSH1 0x20 DUP1 DUP4 KECCAK256 SWAP1 SWAP2 ADD SLOAD PUSH1 0x1 PUSH1 0x1 PUSH1 0xA0 SHL SUB AND DUP4 MSTORE DUP3 ADD SWAP3 SWAP1 SWAP3 MSTORE PUSH1 0x40 ADD SWAP1 KECCAK256 SSTORE DUP1 PUSH2 0x1B3 DUP2 PUSH2 0x5BB JUMP JUMPDEST SWAP2 POP POP PUSH2 0x153 JUMP JUMPDEST POP PUSH1 0x40 DUP1 MLOAD PUSH1 0x0 DUP2 MSTORE PUSH1 0x20 DUP2 ADD SWAP2 DUP3 SWAP1 MSTORE MLOAD PUSH2 0x1D9 SWAP2 PUSH1 0x3 SWAP2 PUSH2 0x390 JUMP JUMPDEST POP JUMP JUMPDEST PUSH1 0x2 SLOAD PUSH1 0x1 PUSH1 0x1 PUSH1 0xA0 SHL SUB AND CALLER EQ ISZERO PUSH2 0x207 JUMPI PUSH1 0x40 MLOAD PUSH3 0x461BCD PUSH1 0xE5 SHL DUP2 MSTORE PUSH1 0x4 ADD PUSH2 0x11A SWAP1 PUSH2 0x524 JUMP JUMPDEST CALLVALUE PUSH1 0x32 PUSH1 0x0 PUSH2 0x215 DUP3 PUSH2 0x33D JUMP JUMPDEST SWAP1 POP PUSH1 0x0 PUSH2 0x227 PUSH4 0x3B9ACA00 DUP4 PUSH2 0x57C JUMP JUMPDEST SWAP1 POP DUP2 DUP5 LT ISZERO PUSH2 0x249 JUMPI PUSH1 0x40 MLOAD PUSH3 0x461BCD PUSH1 0xE5 SHL DUP2 MSTORE PUSH1 0x4 ADD PUSH2 0x11A SWAP1 PUSH2 0x4D8 JUMP JUMPDEST CALLER PUSH1 0x0 SWAP1 DUP2 MSTORE PUSH1 0x1 PUSH1 0x20 MSTORE PUSH1 0x40 DUP2 KECCAK256 DUP1 SLOAD DUP7 SWAP3 SWAP1 PUSH2 0x268 SWAP1 DUP5 SWAP1 PUSH2 0x564 JUMP JUMPDEST SWAP1 SWAP2 SSTORE POP POP PUSH1 0x3 DUP1 SLOAD PUSH1 0x1 DUP2 ADD DUP3 SSTORE PUSH1 0x0 SWAP2 SWAP1 SWAP2 MSTORE PUSH32 0xC2575A0E9E593C00F959F8C92F12DB2869C3395A3B0502D05E2516446F71F85B ADD DUP1 SLOAD PUSH1 0x1 PUSH1 0x1 PUSH1 0xA0 SHL SUB NOT AND CALLER OR SWAP1 SSTORE POP POP POP POP JUMP JUMPDEST PUSH1 0x0 DUP1 SLOAD PUSH1 0x40 DUP1 MLOAD PUSH4 0x3FABE5A3 PUSH1 0xE2 SHL DUP2 MSTORE SWAP1 MLOAD DUP4 SWAP3 PUSH1 0x1 PUSH1 0x1 PUSH1 0xA0 SHL SUB AND SWAP2 PUSH4 0xFEAF968C SWAP2 PUSH1 0x4 DUP1 DUP4 ADD SWAP3 PUSH1 0xA0 SWAP3 SWAP2 SWAP1 DUP3 SWAP1 SUB ADD DUP2 DUP7 DUP1 EXTCODESIZE ISZERO DUP1 ISZERO PUSH2 0x2FA JUMPI PUSH1 0x0 DUP1 REVERT JUMPDEST POP GAS STATICCALL ISZERO DUP1 ISZERO PUSH2 0x30E JUMPI RETURNDATASIZE PUSH1 0x0 DUP1 RETURNDATACOPY RETURNDATASIZE PUSH1 0x0 REVERT JUMPDEST POP POP POP POP PUSH1 0x40 MLOAD RETURNDATASIZE PUSH1 0x1F NOT PUSH1 0x1F DUP3 ADD AND DUP3 ADD DUP1 PUSH1 0x40 MSTORE POP DUP2 ADD SWAP1 PUSH2 0x332 SWAP2 SWAP1 PUSH2 0x452 JUMP JUMPDEST POP SWAP2 SWAP5 POP POP POP POP POP SWAP1 JUMP JUMPDEST PUSH1 0x0 DUP1 PUSH2 0x34E DUP4 PUSH4 0x3B9ACA00 PUSH2 0x59C JUMP JUMPDEST PUSH2 0x35C SWAP1 PUSH4 0x3B9ACA00 PUSH2 0x59C JUMP JUMPDEST PUSH2 0x36A SWAP1 PUSH4 0x5F5E100 PUSH2 0x59C JUMP JUMPDEST SWAP1 POP PUSH2 0x374 PUSH2 0x387 JUMP JUMPDEST PUSH2 0x37E SWAP1 DUP3 PUSH2 0x57C JUMP JUMPDEST SWAP2 POP POP JUMPDEST SWAP2 SWAP1 POP JUMP JUMPDEST PUSH5 0x4D67A79188 SWAP1 JUMP JUMPDEST DUP3 DUP1 SLOAD DUP3 DUP3 SSTORE SWAP1 PUSH1 0x0 MSTORE PUSH1 0x20 PUSH1 0x0 KECCAK256 SWAP1 DUP2 ADD SWAP3 DUP3 ISZERO PUSH2 0x3E5 JUMPI SWAP2 PUSH1 0x20 MUL DUP3 ADD JUMPDEST DUP3 DUP2 GT ISZERO PUSH2 0x3E5 JUMPI DUP3 MLOAD DUP3 SLOAD PUSH1 0x1 PUSH1 0x1 PUSH1 0xA0 SHL SUB NOT AND PUSH1 0x1 PUSH1 0x1 PUSH1 0xA0 SHL SUB SWAP1 SWAP2 AND OR DUP3 SSTORE PUSH1 0x20 SWAP1 SWAP3 ADD SWAP2 PUSH1 0x1 SWAP1 SWAP2 ADD SWAP1 PUSH2 0x3B0 JUMP JUMPDEST POP PUSH2 0x3F1 SWAP3 SWAP2 POP PUSH2 0x3F5 JUMP JUMPDEST POP SWAP1 JUMP JUMPDEST JUMPDEST DUP1 DUP3 GT ISZERO PUSH2 0x3F1 JUMPI PUSH1 0x0 DUP2 SSTORE PUSH1 0x1 ADD PUSH2 0x3F6 JUMP JUMPDEST DUP1 MLOAD PUSH10 0xFFFFFFFFFFFFFFFFFFFF DUP2 AND DUP2 EQ PUSH2 0x382 JUMPI PUSH1 0x0 DUP1 REVERT JUMPDEST PUSH1 0x0 PUSH1 0x20 DUP3 DUP5 SUB SLT ISZERO PUSH2 0x435 JUMPI DUP1 DUP2 REVERT JUMPDEST DUP2 CALLDATALOAD PUSH1 0x1 PUSH1 0x1 PUSH1 0xA0 SHL SUB DUP2 AND DUP2 EQ PUSH2 0x44B JUMPI DUP2 DUP3 REVERT JUMPDEST SWAP4 SWAP3 POP POP POP JUMP JUMPDEST PUSH1 0x0 DUP1 PUSH1 0x0 DUP1 PUSH1 0x0 PUSH1 0xA0 DUP7 DUP9 SUB SLT ISZERO PUSH2 0x469 JUMPI DUP1 DUP2 REVERT JUMPDEST PUSH2 0x472 DUP7 PUSH2 0x40A JUMP JUMPDEST SWAP5 POP PUSH1 0x20 DUP7 ADD MLOAD SWAP4 POP PUSH1 0x40 DUP7 ADD MLOAD SWAP3 POP PUSH1 0x60 DUP7 ADD MLOAD SWAP2 POP PUSH2 0x495 PUSH1 0x80 DUP8 ADD PUSH2 0x40A JUMP JUMPDEST SWAP1 POP SWAP3 SWAP6 POP SWAP3 SWAP6 SWAP1 SWAP4 POP JUMP JUMPDEST PUSH1 0x20 DUP1 DUP3 MSTORE PUSH1 0x1E SWAP1 DUP3 ADD MSTORE PUSH32 0x4F6E6C792061646D696E2063616E2077697468647261772066756E6473210000 PUSH1 0x40 DUP3 ADD MSTORE PUSH1 0x60 ADD SWAP1 JUMP JUMPDEST PUSH1 0x20 DUP1 DUP3 MSTORE PUSH1 0x2C SWAP1 DUP3 ADD MSTORE PUSH32 0x596F75206E65656420746F207370656E64206D6F726520455448202D206D696E PUSH1 0x40 DUP3 ADD MSTORE PUSH12 0x696D756D2035302055534421 PUSH1 0xA0 SHL PUSH1 0x60 DUP3 ADD MSTORE PUSH1 0x80 ADD SWAP1 JUMP JUMPDEST PUSH1 0x20 DUP1 DUP3 MSTORE PUSH1 0x1D SWAP1 DUP3 ADD MSTORE PUSH32 0x4F6E6C79206E6F6E2061646D696E2063616E2066756E64207468697321000000 PUSH1 0x40 DUP3 ADD MSTORE PUSH1 0x60 ADD SWAP1 JUMP JUMPDEST SWAP1 DUP2 MSTORE PUSH1 0x20 ADD SWAP1 JUMP JUMPDEST PUSH1 0x0 DUP3 NOT DUP3 GT ISZERO PUSH2 0x577 JUMPI PUSH2 0x577 PUSH2 0x5D6 JUMP JUMPDEST POP ADD SWAP1 JUMP JUMPDEST PUSH1 0x0 DUP3 PUSH2 0x597 JUMPI PUSH4 0x4E487B71 PUSH1 0xE0 SHL DUP2 MSTORE PUSH1 0x12 PUSH1 0x4 MSTORE PUSH1 0x24 DUP2 REVERT JUMPDEST POP DIV SWAP1 JUMP JUMPDEST PUSH1 0x0 DUP2 PUSH1 0x0 NOT DIV DUP4 GT DUP3 ISZERO ISZERO AND ISZERO PUSH2 0x5B6 JUMPI PUSH2 0x5B6 PUSH2 0x5D6 JUMP JUMPDEST POP MUL SWAP1 JUMP JUMPDEST PUSH1 0x0 PUSH1 0x0 NOT DUP3 EQ ISZERO PUSH2 0x5CF JUMPI PUSH2 0x5CF PUSH2 0x5D6 JUMP JUMPDEST POP PUSH1 0x1 ADD SWAP1 JUMP JUMPDEST PUSH4 0x4E487B71 PUSH1 0xE0 SHL PUSH1 0x0 MSTORE PUSH1 0x11 PUSH1 0x4 MSTORE PUSH1 0x24 PUSH1 0x0 REVERT INVALID LOG2 PUSH5 0x6970667358 0x22 SLT KECCAK256 0xAA 0xDF PUSH8 0xFA70E22E25B0DA56 DUP14 0xEE 0xF9 PUSH32 0x2B618D2CF271F056AB0D0DBDA1E174677964736F6C6343000800003300000000 ",
  "sha1": "601b37b673d43cec7433ec8ad94e3fe987e0c15f",
  "source": "//SPDX-License-Identifier: MIT\npragma solidity ^0.8.0;\npragma experimental ABIEncoderV2;\n\nimport \"@chainlink/contracts/src/v0.8/interfaces/AggregatorV3Interface.sol\";\n\ncontract FundMe {\n    AggregatorV3Interface private priceFeed;\n    mapping(address => uint256) public addressToAmount;\n    address private owner;\n    address[] private funders;\n\n    constructor(address _priceFeedAddress) {\n        owner = msg.sender;\n        priceFeed = AggregatorV3Interface(_priceFeedAddress);\n    }\n\n    function fund() public payable onlyNonOwner {\n        uint256 usrAmtInWEI = msg.value;\n        uint256 minimumUSD = 50;\n        uint256 minimumUSDinWEI = getConversionUSDToWEI(minimumUSD);\n        uint256 minimumUSDinGWEI = minimumUSDinWEI / (10**9);\n\n        require(\n            usrAmtInWEI >= minimumUSDinWEI,\n            \"You need to spend more ETH - minimum 50 USD!\"\n        );\n        addressToAmount[msg.sender] += usrAmtInWEI;\n        funders.push(msg.sender);\n    }\n\n    modifier onlyOwner() {\n        require(owner == msg.sender, \"Only admin can withdraw funds!\");\n        _;\n    }\n    modifier onlyNonOwner() {\n        require(owner != msg.sender, \"Only non admin can fund this!\");\n        _;\n    }\n\n    function withdraw() public payable onlyOwner {\n        payable(msg.sender).transfer(address(this).balance);\n        for (uint256 i = 0; i < funders.length; i++) {\n            addressToAmount[funders[i]] = 0;\n        }\n        funders = new address[](0);\n    }\n\n    function getConversionUSDToWEI(uint256 inputAmtUSD)\n        private\n        pure\n        returns (uint256)\n    {\n        uint256 usdToEth = inputAmtUSD * (10**9) * (10**9) * (10**8);\n        usdToEth = usdToEth / getPriceHardCode();\n        return usdToEth;\n    }\n\n    function getPriceHardCode() private pure returns (uint256) {\n        // returns price of (10 ** 8) ETH in USD\n        uint256 ans = 332451516808;\n        return ans;\n    }\n\n    function getPrice() private view returns (uint256) {\n        (, int256 answer, , , ) = priceFeed.latestRoundData();\n        return uint256(answer);\n        //332451516808\n    }\n\n    function getPriceAll()\n        private\n        view\n        returns (\n            uint80,\n            int256,\n            uint256,\n            uint256,\n            uint80\n        )\n    {\n        (\n            uint80 roundId,\n            int256 answer,\n            uint256 startedAt,\n            uint256 updatedAt,\n            uint80 answerInRound\n        ) = priceFeed.latestRoundData();\n        return (roundId, answer, startedAt, updatedAt, answerInRound);\n    }\n\n    function getEntranceFee() public view returns (uint256) {\n        // minimumUSD\n        uint256 minimumUSD = 50 * 10**18;\n        uint256 price = getPrice();\n        uint256 precision = 1 * 10**18;\n        return (minimumUSD * precision) / price;\n    }\n}\n",
  "sourcePath": "contracts/FundMe.sol",
  "type": "contract"
}