{
  "abi": [
    {
      "inputs": [
        {
          "internalType": "string",
          "name": "_msg",
          "type": "string"
        }
      ],
      "stateMutability": "nonpayable",
      "type": "constructor"
    },
    {
      "inputs": [
        {
          "internalType": "string",
          "name": "_name",
          "type": "string"
        },
        {
          "internalType": "uint256",
          "name": "_favNum",
          "type": "uint256"
        }
      ],
      "name": "addPerson",
      "outputs": [],
      "stateMutability": "nonpayable",
      "type": "function"
    },
    {
      "inputs": [],
      "name": "getMessage",
      "outputs": [
        {
          "internalType": "string",
          "name": "",
          "type": "string"
        }
      ],
      "stateMutability": "view",
      "type": "function"
    },
    {
      "inputs": [],
      "name": "getOwner",
      "outputs": [
        {
          "internalType": "address",
          "name": "",
          "type": "address"
        }
      ],
      "stateMutability": "view",
      "type": "function"
    },
    {
      "inputs": [],
      "name": "getPerson",
      "outputs": [
        {
          "components": [
            {
              "internalType": "uint256",
              "name": "favoriteNumber",
              "type": "uint256"
            },
            {
              "internalType": "string",
              "name": "name",
              "type": "string"
            }
          ],
          "internalType": "struct SimpleStorage.People",
          "name": "",
          "type": "tuple"
        }
      ],
      "stateMutability": "view",
      "type": "function"
    },
    {
      "inputs": [],
      "name": "retrive",
      "outputs": [
        {
          "internalType": "uint256",
          "name": "",
          "type": "uint256"
        }
      ],
      "stateMutability": "view",
      "type": "function"
    },
    {
      "inputs": [
        {
          "internalType": "string",
          "name": "_name",
          "type": "string"
        }
      ],
      "name": "retrivePeople",
      "outputs": [
        {
          "components": [
            {
              "internalType": "uint256",
              "name": "favoriteNumber",
              "type": "uint256"
            },
            {
              "internalType": "string",
              "name": "name",
              "type": "string"
            }
          ],
          "internalType": "struct SimpleStorage.People",
          "name": "",
          "type": "tuple"
        }
      ],
      "stateMutability": "view",
      "type": "function"
    },
    {
      "inputs": [
        {
          "internalType": "uint256",
          "name": "_favNum",
          "type": "uint256"
        }
      ],
      "name": "store",
      "outputs": [],
      "stateMutability": "nonpayable",
      "type": "function"
    }
  ],
  "bytecode": "60016080818152610100604052600760c08181526629b430b13134b960c91b60e090815260a091909152600393845591929161003e9160049190610098565b50505034801561004d57600080fd5b5060405161092538038061092583398101604081905261006c91610131565b600280546001600160a01b031916331790558051610091906001906020840190610098565b5050610244565b8280546100a4906101f3565b90600052602060002090601f0160209004810192826100c6576000855561010c565b82601f106100df57805160ff191683800117855561010c565b8280016001018555821561010c579182015b8281111561010c5782518255916020019190600101906100f1565b5061011892915061011c565b5090565b5b80821115610118576000815560010161011d565b60006020808385031215610143578182fd5b82516001600160401b0380821115610159578384fd5b818501915085601f83011261016c578384fd5b81518181111561017e5761017e61022e565b604051601f8201601f19168101850183811182821017156101a1576101a161022e565b60405281815283820185018810156101b7578586fd5b8592505b818310156101d857838301850151818401860152918401916101bb565b818311156101e857858583830101525b979650505050505050565b60028104600182168061020757607f821691505b6020821081141561022857634e487b7160e01b600052602260045260246000fd5b50919050565b634e487b7160e01b600052604160045260246000fd5b6106d2806102536000396000f3fe608060405234801561001057600080fd5b506004361061007d5760003560e01c8063893d20e81161005b578063893d20e8146100d35780638ec4dc95146100e8578063a6b7fc5b146100f0578063ce6d41de146101055761007d565b80636057361d146100825780636f760f411461009757806384c335e6146100aa575b600080fd5b61009561009036600461055f565b61011a565b005b6100956100a536600461051c565b61011f565b6100bd6100b83660046104e1565b610180565b6040516100ca91906105ed565b60405180910390f35b6100db610254565b6040516100ca91906105bf565b6100bd610263565b6100f8610315565b6040516100ca9190610612565b61010d61031b565b6040516100ca91906105d3565b600055565b60408051808201825282815260208101849052905181906005906101449086906105a3565b90815260200160405180910390206000820151816000015560208201518160010190805190602001906101789291906103ad565b505050505050565b610188610431565b60058260405161019891906105a3565b9081526020016040518091039020604051806040016040529081600082015481526020016001820180546101cb9061064b565b80601f01602080910402602001604051908101604052809291908181526020018280546101f79061064b565b80156102445780601f1061021957610100808354040283529160200191610244565b820191906000526020600020905b81548152906001019060200180831161022757829003601f168201915b5050505050815250509050919050565b6002546001600160a01b031690565b61026b610431565b604080518082019091526003805482526004805460208401919061028e9061064b565b80601f01602080910402602001604051908101604052809291908181526020018280546102ba9061064b565b80156103075780601f106102dc57610100808354040283529160200191610307565b820191906000526020600020905b8154815290600101906020018083116102ea57829003601f168201915b505050505081525050905090565b60005490565b60606001805461032a9061064b565b80601f01602080910402602001604051908101604052809291908181526020018280546103569061064b565b80156103a35780601f10610378576101008083540402835291602001916103a3565b820191906000526020600020905b81548152906001019060200180831161038657829003601f168201915b5050505050905090565b8280546103b99061064b565b90600052602060002090601f0160209004810192826103db5760008555610421565b82601f106103f457805160ff1916838001178555610421565b82800160010185558215610421579182015b82811115610421578251825591602001919060010190610406565b5061042d92915061044b565b5090565b604051806040016040528060008152602001606081525090565b5b8082111561042d576000815560010161044c565b600082601f830112610470578081fd5b813567ffffffffffffffff8082111561048b5761048b610686565b604051601f8301601f1916810160200182811182821017156104af576104af610686565b6040528281528483016020018610156104c6578384fd5b82602086016020830137918201602001929092529392505050565b6000602082840312156104f2578081fd5b813567ffffffffffffffff811115610508578182fd5b61051484828501610460565b949350505050565b6000806040838503121561052e578081fd5b823567ffffffffffffffff811115610544578182fd5b61055085828601610460565b95602094909401359450505050565b600060208284031215610570578081fd5b5035919050565b6000815180845261058f81602086016020860161061b565b601f01601f19169290920160200192915050565b600082516105b581846020870161061b565b9190910192915050565b6001600160a01b0391909116815260200190565b6000602082526105e66020830184610577565b9392505050565b6000602082528251602083015260208301516040808401526105146060840182610577565b90815260200190565b60005b8381101561063657818101518382015260200161061e565b83811115610645576000848401525b50505050565b60028104600182168061065f57607f821691505b6020821081141561068057634e487b7160e01b600052602260045260246000fd5b50919050565b634e487b7160e01b600052604160045260246000fdfea2646970667358221220fa369e8c8956bba9ace7c312ea21881c9087028c262156c9e0bce32184cf33c264736f6c63430008000033",
  "bytecodeSha1": "7ea20142aa325c5901c7d293b192bcdd0f62bb33",
  "compiler": {
    "evm_version": "istanbul",
    "optimizer": {
      "enabled": true,
      "runs": 200
    },
    "version": "0.8.0+commit.c7dfd78e"
  },
  "contractName": "SimpleStorage",
  "language": "Solidity",
  "natspec": {
    "kind": "dev",
    "methods": {},
    "version": 1
  },
  "opcodes": "PUSH1 0x80 PUSH1 0x40 MSTORE CALLVALUE DUP1 ISZERO PUSH2 0x10 JUMPI PUSH1 0x0 DUP1 REVERT JUMPDEST POP PUSH1 0x4 CALLDATASIZE LT PUSH2 0x7D JUMPI PUSH1 0x0 CALLDATALOAD PUSH1 0xE0 SHR DUP1 PUSH4 0x893D20E8 GT PUSH2 0x5B JUMPI DUP1 PUSH4 0x893D20E8 EQ PUSH2 0xD3 JUMPI DUP1 PUSH4 0x8EC4DC95 EQ PUSH2 0xE8 JUMPI DUP1 PUSH4 0xA6B7FC5B EQ PUSH2 0xF0 JUMPI DUP1 PUSH4 0xCE6D41DE EQ PUSH2 0x105 JUMPI PUSH2 0x7D JUMP JUMPDEST DUP1 PUSH4 0x6057361D EQ PUSH2 0x82 JUMPI DUP1 PUSH4 0x6F760F41 EQ PUSH2 0x97 JUMPI DUP1 PUSH4 0x84C335E6 EQ PUSH2 0xAA JUMPI JUMPDEST PUSH1 0x0 DUP1 REVERT JUMPDEST PUSH2 0x95 PUSH2 0x90 CALLDATASIZE PUSH1 0x4 PUSH2 0x55F JUMP JUMPDEST PUSH2 0x11A JUMP JUMPDEST STOP JUMPDEST PUSH2 0x95 PUSH2 0xA5 CALLDATASIZE PUSH1 0x4 PUSH2 0x51C JUMP JUMPDEST PUSH2 0x11F JUMP JUMPDEST PUSH2 0xBD PUSH2 0xB8 CALLDATASIZE PUSH1 0x4 PUSH2 0x4E1 JUMP JUMPDEST PUSH2 0x180 JUMP JUMPDEST PUSH1 0x40 MLOAD PUSH2 0xCA SWAP2 SWAP1 PUSH2 0x5ED JUMP JUMPDEST PUSH1 0x40 MLOAD DUP1 SWAP2 SUB SWAP1 RETURN JUMPDEST PUSH2 0xDB PUSH2 0x254 JUMP JUMPDEST PUSH1 0x40 MLOAD PUSH2 0xCA SWAP2 SWAP1 PUSH2 0x5BF JUMP JUMPDEST PUSH2 0xBD PUSH2 0x263 JUMP JUMPDEST PUSH2 0xF8 PUSH2 0x315 JUMP JUMPDEST PUSH1 0x40 MLOAD PUSH2 0xCA SWAP2 SWAP1 PUSH2 0x612 JUMP JUMPDEST PUSH2 0x10D PUSH2 0x31B JUMP JUMPDEST PUSH1 0x40 MLOAD PUSH2 0xCA SWAP2 SWAP1 PUSH2 0x5D3 JUMP JUMPDEST PUSH1 0x0 SSTORE JUMP JUMPDEST PUSH1 0x40 DUP1 MLOAD DUP1 DUP3 ADD DUP3 MSTORE DUP3 DUP2 MSTORE PUSH1 0x20 DUP2 ADD DUP5 SWAP1 MSTORE SWAP1 MLOAD DUP2 SWAP1 PUSH1 0x5 SWAP1 PUSH2 0x144 SWAP1 DUP7 SWAP1 PUSH2 0x5A3 JUMP JUMPDEST SWAP1 DUP2 MSTORE PUSH1 0x20 ADD PUSH1 0x40 MLOAD DUP1 SWAP2 SUB SWAP1 KECCAK256 PUSH1 0x0 DUP3 ADD MLOAD DUP2 PUSH1 0x0 ADD SSTORE PUSH1 0x20 DUP3 ADD MLOAD DUP2 PUSH1 0x1 ADD SWAP1 DUP1 MLOAD SWAP1 PUSH1 0x20 ADD SWAP1 PUSH2 0x178 SWAP3 SWAP2 SWAP1 PUSH2 0x3AD JUMP JUMPDEST POP POP POP POP POP POP JUMP JUMPDEST PUSH2 0x188 PUSH2 0x431 JUMP JUMPDEST PUSH1 0x5 DUP3 PUSH1 0x40 MLOAD PUSH2 0x198 SWAP2 SWAP1 PUSH2 0x5A3 JUMP JUMPDEST SWAP1 DUP2 MSTORE PUSH1 0x20 ADD PUSH1 0x40 MLOAD DUP1 SWAP2 SUB SWAP1 KECCAK256 PUSH1 0x40 MLOAD DUP1 PUSH1 0x40 ADD PUSH1 0x40 MSTORE SWAP1 DUP2 PUSH1 0x0 DUP3 ADD SLOAD DUP2 MSTORE PUSH1 0x20 ADD PUSH1 0x1 DUP3 ADD DUP1 SLOAD PUSH2 0x1CB SWAP1 PUSH2 0x64B JUMP JUMPDEST DUP1 PUSH1 0x1F ADD PUSH1 0x20 DUP1 SWAP2 DIV MUL PUSH1 0x20 ADD PUSH1 0x40 MLOAD SWAP1 DUP2 ADD PUSH1 0x40 MSTORE DUP1 SWAP3 SWAP2 SWAP1 DUP2 DUP2 MSTORE PUSH1 0x20 ADD DUP3 DUP1 SLOAD PUSH2 0x1F7 SWAP1 PUSH2 0x64B JUMP JUMPDEST DUP1 ISZERO PUSH2 0x244 JUMPI DUP1 PUSH1 0x1F LT PUSH2 0x219 JUMPI PUSH2 0x100 DUP1 DUP4 SLOAD DIV MUL DUP4 MSTORE SWAP2 PUSH1 0x20 ADD SWAP2 PUSH2 0x244 JUMP JUMPDEST DUP3 ADD SWAP2 SWAP1 PUSH1 0x0 MSTORE PUSH1 0x20 PUSH1 0x0 KECCAK256 SWAP1 JUMPDEST DUP2 SLOAD DUP2 MSTORE SWAP1 PUSH1 0x1 ADD SWAP1 PUSH1 0x20 ADD DUP1 DUP4 GT PUSH2 0x227 JUMPI DUP3 SWAP1 SUB PUSH1 0x1F AND DUP3 ADD SWAP2 JUMPDEST POP POP POP POP POP DUP2 MSTORE POP POP SWAP1 POP SWAP2 SWAP1 POP JUMP JUMPDEST PUSH1 0x2 SLOAD PUSH1 0x1 PUSH1 0x1 PUSH1 0xA0 SHL SUB AND SWAP1 JUMP JUMPDEST PUSH2 0x26B PUSH2 0x431 JUMP JUMPDEST PUSH1 0x40 DUP1 MLOAD DUP1 DUP3 ADD SWAP1 SWAP2 MSTORE PUSH1 0x3 DUP1 SLOAD DUP3 MSTORE PUSH1 0x4 DUP1 SLOAD PUSH1 0x20 DUP5 ADD SWAP2 SWAP1 PUSH2 0x28E SWAP1 PUSH2 0x64B JUMP JUMPDEST DUP1 PUSH1 0x1F ADD PUSH1 0x20 DUP1 SWAP2 DIV MUL PUSH1 0x20 ADD PUSH1 0x40 MLOAD SWAP1 DUP2 ADD PUSH1 0x40 MSTORE DUP1 SWAP3 SWAP2 SWAP1 DUP2 DUP2 MSTORE PUSH1 0x20 ADD DUP3 DUP1 SLOAD PUSH2 0x2BA SWAP1 PUSH2 0x64B JUMP JUMPDEST DUP1 ISZERO PUSH2 0x307 JUMPI DUP1 PUSH1 0x1F LT PUSH2 0x2DC JUMPI PUSH2 0x100 DUP1 DUP4 SLOAD DIV MUL DUP4 MSTORE SWAP2 PUSH1 0x20 ADD SWAP2 PUSH2 0x307 JUMP JUMPDEST DUP3 ADD SWAP2 SWAP1 PUSH1 0x0 MSTORE PUSH1 0x20 PUSH1 0x0 KECCAK256 SWAP1 JUMPDEST DUP2 SLOAD DUP2 MSTORE SWAP1 PUSH1 0x1 ADD SWAP1 PUSH1 0x20 ADD DUP1 DUP4 GT PUSH2 0x2EA JUMPI DUP3 SWAP1 SUB PUSH1 0x1F AND DUP3 ADD SWAP2 JUMPDEST POP POP POP POP POP DUP2 MSTORE POP POP SWAP1 POP SWAP1 JUMP JUMPDEST PUSH1 0x0 SLOAD SWAP1 JUMP JUMPDEST PUSH1 0x60 PUSH1 0x1 DUP1 SLOAD PUSH2 0x32A SWAP1 PUSH2 0x64B JUMP JUMPDEST DUP1 PUSH1 0x1F ADD PUSH1 0x20 DUP1 SWAP2 DIV MUL PUSH1 0x20 ADD PUSH1 0x40 MLOAD SWAP1 DUP2 ADD PUSH1 0x40 MSTORE DUP1 SWAP3 SWAP2 SWAP1 DUP2 DUP2 MSTORE PUSH1 0x20 ADD DUP3 DUP1 SLOAD PUSH2 0x356 SWAP1 PUSH2 0x64B JUMP JUMPDEST DUP1 ISZERO PUSH2 0x3A3 JUMPI DUP1 PUSH1 0x1F LT PUSH2 0x378 JUMPI PUSH2 0x100 DUP1 DUP4 SLOAD DIV MUL DUP4 MSTORE SWAP2 PUSH1 0x20 ADD SWAP2 PUSH2 0x3A3 JUMP JUMPDEST DUP3 ADD SWAP2 SWAP1 PUSH1 0x0 MSTORE PUSH1 0x20 PUSH1 0x0 KECCAK256 SWAP1 JUMPDEST DUP2 SLOAD DUP2 MSTORE SWAP1 PUSH1 0x1 ADD SWAP1 PUSH1 0x20 ADD DUP1 DUP4 GT PUSH2 0x386 JUMPI DUP3 SWAP1 SUB PUSH1 0x1F AND DUP3 ADD SWAP2 JUMPDEST POP POP POP POP POP SWAP1 POP SWAP1 JUMP JUMPDEST DUP3 DUP1 SLOAD PUSH2 0x3B9 SWAP1 PUSH2 0x64B JUMP JUMPDEST SWAP1 PUSH1 0x0 MSTORE PUSH1 0x20 PUSH1 0x0 KECCAK256 SWAP1 PUSH1 0x1F ADD PUSH1 0x20 SWAP1 DIV DUP2 ADD SWAP3 DUP3 PUSH2 0x3DB JUMPI PUSH1 0x0 DUP6 SSTORE PUSH2 0x421 JUMP JUMPDEST DUP3 PUSH1 0x1F LT PUSH2 0x3F4 JUMPI DUP1 MLOAD PUSH1 0xFF NOT AND DUP4 DUP1 ADD OR DUP6 SSTORE PUSH2 0x421 JUMP JUMPDEST DUP3 DUP1 ADD PUSH1 0x1 ADD DUP6 SSTORE DUP3 ISZERO PUSH2 0x421 JUMPI SWAP2 DUP3 ADD JUMPDEST DUP3 DUP2 GT ISZERO PUSH2 0x421 JUMPI DUP3 MLOAD DUP3 SSTORE SWAP2 PUSH1 0x20 ADD SWAP2 SWAP1 PUSH1 0x1 ADD SWAP1 PUSH2 0x406 JUMP JUMPDEST POP PUSH2 0x42D SWAP3 SWAP2 POP PUSH2 0x44B JUMP JUMPDEST POP SWAP1 JUMP JUMPDEST PUSH1 0x40 MLOAD DUP1 PUSH1 0x40 ADD PUSH1 0x40 MSTORE DUP1 PUSH1 0x0 DUP2 MSTORE PUSH1 0x20 ADD PUSH1 0x60 DUP2 MSTORE POP SWAP1 JUMP JUMPDEST JUMPDEST DUP1 DUP3 GT ISZERO PUSH2 0x42D JUMPI PUSH1 0x0 DUP2 SSTORE PUSH1 0x1 ADD PUSH2 0x44C JUMP JUMPDEST PUSH1 0x0 DUP3 PUSH1 0x1F DUP4 ADD SLT PUSH2 0x470 JUMPI DUP1 DUP2 REVERT JUMPDEST DUP2 CALLDATALOAD PUSH8 0xFFFFFFFFFFFFFFFF DUP1 DUP3 GT ISZERO PUSH2 0x48B JUMPI PUSH2 0x48B PUSH2 0x686 JUMP JUMPDEST PUSH1 0x40 MLOAD PUSH1 0x1F DUP4 ADD PUSH1 0x1F NOT AND DUP2 ADD PUSH1 0x20 ADD DUP3 DUP2 GT DUP3 DUP3 LT OR ISZERO PUSH2 0x4AF JUMPI PUSH2 0x4AF PUSH2 0x686 JUMP JUMPDEST PUSH1 0x40 MSTORE DUP3 DUP2 MSTORE DUP5 DUP4 ADD PUSH1 0x20 ADD DUP7 LT ISZERO PUSH2 0x4C6 JUMPI DUP4 DUP5 REVERT JUMPDEST DUP3 PUSH1 0x20 DUP7 ADD PUSH1 0x20 DUP4 ADD CALLDATACOPY SWAP2 DUP3 ADD PUSH1 0x20 ADD SWAP3 SWAP1 SWAP3 MSTORE SWAP4 SWAP3 POP POP POP JUMP JUMPDEST PUSH1 0x0 PUSH1 0x20 DUP3 DUP5 SUB SLT ISZERO PUSH2 0x4F2 JUMPI DUP1 DUP2 REVERT JUMPDEST DUP2 CALLDATALOAD PUSH8 0xFFFFFFFFFFFFFFFF DUP2 GT ISZERO PUSH2 0x508 JUMPI DUP2 DUP3 REVERT JUMPDEST PUSH2 0x514 DUP5 DUP3 DUP6 ADD PUSH2 0x460 JUMP JUMPDEST SWAP5 SWAP4 POP POP POP POP JUMP JUMPDEST PUSH1 0x0 DUP1 PUSH1 0x40 DUP4 DUP6 SUB SLT ISZERO PUSH2 0x52E JUMPI DUP1 DUP2 REVERT JUMPDEST DUP3 CALLDATALOAD PUSH8 0xFFFFFFFFFFFFFFFF DUP2 GT ISZERO PUSH2 0x544 JUMPI DUP2 DUP3 REVERT JUMPDEST PUSH2 0x550 DUP6 DUP3 DUP7 ADD PUSH2 0x460 JUMP JUMPDEST SWAP6 PUSH1 0x20 SWAP5 SWAP1 SWAP5 ADD CALLDATALOAD SWAP5 POP POP POP POP JUMP JUMPDEST PUSH1 0x0 PUSH1 0x20 DUP3 DUP5 SUB SLT ISZERO PUSH2 0x570 JUMPI DUP1 DUP2 REVERT JUMPDEST POP CALLDATALOAD SWAP2 SWAP1 POP JUMP JUMPDEST PUSH1 0x0 DUP2 MLOAD DUP1 DUP5 MSTORE PUSH2 0x58F DUP2 PUSH1 0x20 DUP7 ADD PUSH1 0x20 DUP7 ADD PUSH2 0x61B JUMP JUMPDEST PUSH1 0x1F ADD PUSH1 0x1F NOT AND SWAP3 SWAP1 SWAP3 ADD PUSH1 0x20 ADD SWAP3 SWAP2 POP POP JUMP JUMPDEST PUSH1 0x0 DUP3 MLOAD PUSH2 0x5B5 DUP2 DUP5 PUSH1 0x20 DUP8 ADD PUSH2 0x61B JUMP JUMPDEST SWAP2 SWAP1 SWAP2 ADD SWAP3 SWAP2 POP POP JUMP JUMPDEST PUSH1 0x1 PUSH1 0x1 PUSH1 0xA0 SHL SUB SWAP2 SWAP1 SWAP2 AND DUP2 MSTORE PUSH1 0x20 ADD SWAP1 JUMP JUMPDEST PUSH1 0x0 PUSH1 0x20 DUP3 MSTORE PUSH2 0x5E6 PUSH1 0x20 DUP4 ADD DUP5 PUSH2 0x577 JUMP JUMPDEST SWAP4 SWAP3 POP POP POP JUMP JUMPDEST PUSH1 0x0 PUSH1 0x20 DUP3 MSTORE DUP3 MLOAD PUSH1 0x20 DUP4 ADD MSTORE PUSH1 0x20 DUP4 ADD MLOAD PUSH1 0x40 DUP1 DUP5 ADD MSTORE PUSH2 0x514 PUSH1 0x60 DUP5 ADD DUP3 PUSH2 0x577 JUMP JUMPDEST SWAP1 DUP2 MSTORE PUSH1 0x20 ADD SWAP1 JUMP JUMPDEST PUSH1 0x0 JUMPDEST DUP4 DUP2 LT ISZERO PUSH2 0x636 JUMPI DUP2 DUP2 ADD MLOAD DUP4 DUP3 ADD MSTORE PUSH1 0x20 ADD PUSH2 0x61E JUMP JUMPDEST DUP4 DUP2 GT ISZERO PUSH2 0x645 JUMPI PUSH1 0x0 DUP5 DUP5 ADD MSTORE JUMPDEST POP POP POP POP JUMP JUMPDEST PUSH1 0x2 DUP2 DIV PUSH1 0x1 DUP3 AND DUP1 PUSH2 0x65F JUMPI PUSH1 0x7F DUP3 AND SWAP2 POP JUMPDEST PUSH1 0x20 DUP3 LT DUP2 EQ ISZERO PUSH2 0x680 JUMPI PUSH4 0x4E487B71 PUSH1 0xE0 SHL PUSH1 0x0 MSTORE PUSH1 0x22 PUSH1 0x4 MSTORE PUSH1 0x24 PUSH1 0x0 REVERT JUMPDEST POP SWAP2 SWAP1 POP JUMP JUMPDEST PUSH4 0x4E487B71 PUSH1 0xE0 SHL PUSH1 0x0 MSTORE PUSH1 0x41 PUSH1 0x4 MSTORE PUSH1 0x24 PUSH1 0x0 REVERT INVALID LOG2 PUSH5 0x6970667358 0x22 SLT KECCAK256 STATICCALL CALLDATASIZE SWAP15 DUP13 DUP10 JUMP 0xBB 0xA9 0xAC 0xE7 0xC3 SLT 0xEA 0x21 DUP9 SHR SWAP1 DUP8 MUL DUP13 0x26 0x21 JUMP 0xC9 0xE0 0xBC 0xE3 0x21 DUP5 0xCF CALLER 0xC2 PUSH5 0x736F6C6343 STOP ADDMOD STOP STOP CALLER ",
  "sha1": "0da4ef5077276338da06678d990d15bddcebbd95",
  "source": "//SPDX-License-Identifier: MIT\npragma solidity ^0.8.0;\n\ncontract SimpleStorage {\n    uint256 private favoriteNumber;\n    string private message;\n    address private owner;\n\n    constructor(string memory _msg) {\n        owner = msg.sender;\n        message = _msg;\n    }\n\n    struct People {\n        uint256 favoriteNumber;\n        string name;\n    }\n    People private person = People({favoriteNumber: 1, name: \"Shabbir\"});\n    mapping(string => People) private people;\n\n    function addPerson(string memory _name, uint256 _favNum) public {\n        People memory p = People({favoriteNumber: _favNum, name: _name});\n        people[_name] = p;\n    }\n\n    function retrivePeople(string memory _name)\n        public\n        view\n        returns (People memory)\n    {\n        return people[_name];\n    }\n\n    function store(uint256 _favNum) public {\n        favoriteNumber = _favNum;\n    }\n\n    function retrive() public view returns (uint256) {\n        return favoriteNumber;\n    }\n\n    function getPerson() public view returns (People memory) {\n        return person;\n    }\n\n    function getMessage() public view returns (string memory) {\n        return message;\n    }\n\n    function getOwner() public view returns (address) {\n        return owner;\n    }\n}\n",
  "sourcePath": "contracts/SimpleStorage.sol",
  "type": "contract"
}